:03000000020006F5
:0300710002000387
:030003000200E018
:1000740075890122AE82AF838E048F051EBEFF01F7
:100084001FEC4D6013758CF8758A30C28DD28C309C
:100094008DFDC28CC28D80E022AE82AF838E048F30
:1000A400051EBEFF011FEC4D6013758CF8758A3078
:1000B400C28DD28C308DFDC28CC28D80E022AE8286
:1000C400AF838E048F051EBEFF011FEC4D70F3221B
:1000D400AF82C2C18FC110C10280FB2275A15575C8
:1000E400A1AA75B98675A100120863120074120DD5
:1000F400FA120DFB120E0280FB900040E0FFBF01DC
:1001040002800DBF0203020424BF04030207C722B6
:10011400900041E0FFBF0800500122EF24F050019D
:1001240022EF24F8FF240A83F582EF240C83F5835D
:10013400E473EF97968180B96846020202020201D5
:1001440001017E007F00EE24D6F582EF3400F583B2
:10015400E4F00EBE00010FC3EE9408EF940040E6F5
:10016400751A08227E007F00900047E0FD7C00C3E2
:10017400EE9DEF9C503BEE24D6FCEF3400FD8E0345
:1001840074022B2440F582E43400F583E0F582C048
:1001940007C006C005C004120CCBAB82D004D00546
:1001A400D006D0078C828D83EBF00EBE00BA0F8090
:1001B400B7751A0822900043E0FF24FA50030202A4
:1001C4004CEF2F2F9001CC7302024C0201DE02018E
:1001D400F402020A020220020236900042E0700891
:1001E400758203120C688074758205120C68806C29
:1001F400900042E07008758204120C68805E75827B
:1002040006120C688056900042E070087582051250
:100214000C688048758207120C688040900042E0A8
:100224007008758206120C688032758208120C6898
:10023400802A900042E07008758207120C68801CC6
:10024400758209120C688014900042E0700875826F
:1002540007120C688006758209120C68900042E04F
:100264006007751F01D2B18005751F00C2B1AF963A
:1002740074FD5FF596439702751A08222275FA00F9
:10028400AF9674FD5FF596AF9774FD5FF597751A99
:10029400002222900043E0FE7F00900042E0FD7CBB
:1002A400002FF50DEC3EF50E7E007F00EE24D6FC0B
:1002B400EF3400FDEE250DF582EF350EF583C00712
:1002C400C006C005C004121562AB82D004D005D0AC
:1002D40006D0078C828D83EBF00EBE00010FC3EEB7
:1002E4009480EF940040C5751A8022E51F600302D4
:1002F40003CC900043E0FE7F00900042E0FD7C00D0
:100304002FFFEC3EFE8F09F50A3395E0F50BF50C53
:10031400C313F50CE50B13F50BE50A13F50AE50910
:1003240013F50985090D850A0E850B09850C0A8CC0
:100334000B8C0CE509F50F601875824D120CCB750A
:100344008200120CCB850F82120CCB758200120C2A
:10035400CB7E007F008E05ED2DFD24D6FBE434001A
:10036400FCEE250DF582EF350EF583C007C006C0FF
:1003740005C004C00312150EAA82D003D004D00510
:10038400D006D0078B828C83EAF0ED0424D6FCE4FB
:100394003400FDEE250DF582EF350EF583C007C060
:1003A40006C005C004121538AB82D004D005D006AF
:1003B400D0078C828D83EBF00EBE00010FC3EE9448
:1003C40040EF9400408F8054900043E0FE7F009003
:1003D4000042E0FD7C002FF50DEC3EF50E7E007F23
:1003E40000EE24D6FCEF3400FDEE250DF582EF354A
:1003F4000EF583C007C006C005C0041214E4AB8226
:10040400D004D005D006D0078C828D83EBF00EBECD
:1004140000010FC3EE9480EF940040C5751A80224A
:10042400900044E0FF7E0074012FF510E43EF511C6
:10043400900046E06057900042E0FE7F009000414B
:10044400E0FD7C002FF50DEC3EF50E7E007F009064
:100454000045E0FD7C00C3EE9DEF9C400122EE25AB
:100464000DFCEF350EFD8E0374082B2440F582E459
:100474003400F583E0F5228C828D83C007C0061218
:100484001610D006D0070EBE00C50F80C27401B589
:100494001F57900042E0FE7F00900041E0FD7C0089
:1004A4002FF50DEC3EF50E7E007F00900045E0FD3B
:1004B4007C00C3EE9DEF9C400122EE250DFCEF3540
:1004C4000EFD8E0374082B2440F582E43400F5837A
:1004D400E0F5218C828D83C007C00612158CD006EE
:1004E400D0070EBE00C50F80C2C374809510E4957A
:1004F400115003020589900042E0FE7F0090004104
:10050400E07C002FF50DEC3EF50E900045E0FF7EFB
:10051400008510288511298F828E831217EAAE82F6
:100524008E127E007F00AC127D00C3EE9CEF9D40D6
:1005340001228510288511298E828F83C007C00669
:1005440012182EAC82AD83D006D007EC250DF582AF
:10055400ED350EF5838E05AC108DF0ECA424082443
:1005640040FCE43400FD8C238D2475250085102681
:10057400851127C007C006121673D006D0070EBE19
:1005840000A40F80A1900045E0FFBF800280030219
:100594000692900042E0FE7F00900041E0FD7C0066
:1005A4002FFFEC3EFE8F09F50A3395E0F50BF50CB1
:1005B400C313F50CE50B13F50BE50A13F50AE5096E
:1005C40013F50985090D850A0EE50BF50F601875FD
:1005D400824D120CCB758200120CCB850F82120C4B
:1005E400CB758200120CCB7E007F00EE30E02B75C1
:1005F4008248C007C006120CCB758200120CCBD007
:1006040006D0078E04EFC313CC13CC8C82C007C072
:1006140006120CCBD006D0078029758240C007C0D3
:1006240006120CCB758200120CCBD006D0078E04B8
:10063400EFC313CC13CC8C82C007C006120CCBD0F2
:1006440006D0078E0574082D2440F582E43400F5A5
:1006540083E0F582C007C006120CCBD006D0070E8B
:10066400BE00010FC3EE9480EF940050030205EF27
:1006740075288090004875F0001216408582147425
:10068400FFB51402800475130022751301227E0045
:100694007F00EE30E02E758248C007C006120CCBF6
:1006A400758200120CCBD006D0078E04EFC313CC96
:1006B40013CC74402CF582C007C006120CCBD006B4
:1006C400D007802C758240C007C006120CCB7582FF
:1006D40000120CCBD006D0078E04EFC313CC13CC7E
:1006E40074402CF582C007C006120CCBD006D0078C
:1006F4008E0574082D2440F582E43400F583E0F57A
:1007040082C007C006120CCBD006D0070EBE000173
:100714000FC3EE9480EF9400500302069675824C4A
:10072400120CCB850E82120CCB850D82120CCB756C
:100734008200120CCBE51360187528809000487570
:10074400F00012164085821474802514F514751374
:1007540000E5137068FEFF900001C007C006120098
:1007640078D006D007E51430E022E514C3137C00EA
:10077400250DF582EC350EF583C007C00612153839
:10078400AD82D006D007BDFF02802322E514C31337
:100794007C00250DF582EC350EF583C007C00612EA
:1007A400150EAD82D006D007BDFF028001220EBE19
:1007B40000010FC3EE940AEF9400409B2290000ABC
:1007C400020078900041E0FFBF01028024BF900244
:1007D4008064BF91028066BF92028068BF930280EA
:1007E4006ABF9402806CBF9502806EBF9602806CD3
:1007F400227E007F00EE24D6FCEF3400FD8E02EF53
:10080400CA25E0CA33FB74022AFAE43BFBEA24FC5F
:10081400F582EB3418F583E493FB8C828D83F00E20
:10082400BE00010FC3EE940CEF940040C89000E2A8
:10083400E4F0751A4022120917751A4022120B812E
:10084400751A0022120ABF751A0022120AE9751AD3
:100854004022120A1A751A0022020B5D020B9DAF88
:100864009674FE5FF596439701C2B022D2B022C2BD
:10087400B022AF824393207E00EF30E704D295800C
:1008840002C295900001C007C0061200C2D2979020
:1008940000011200C2D006D007C297EF2FFF0EBE90
:1008A400080040D59000010200C2AF827E00D295BC
:1008B400AD9374DF5DF5937D00EE2EFED29790002C
:1008C40001C007C006C0051200C2D005D006D0077B
:1008D400309503430601C297900001C007C006C0CB
:1008E400051200C2D005D006D0070DBD080040C9CE
:1008F400439320EF6004D2958002C295D297900072
:1009040001C0061200C2C2979000011200C2D006B4
:100914008E8222D2B1C295C2974393204393809092
:10092400000A12009D439702C2B190000A12009D72
:10093400D2B190000A12009DC2B190000A12009D2B
:10094400D2B190000A12009DC2B190000A12009D1B
:10095400D2B190001E12009DC2B190002812009DD9
:10096400D2B190001E12009DC2B190001412009DDD
:10097400D2B190000A12009DC2B190000A12009DEB
:10098400D2B190001412009DC2B190000A12009DD1
:10099400D2B190001412009DC2B190000A12009DC1
:1009A40075825A1208767582A5120876758203122A
:1009B400087690000A12009D7582001208767582EE
:1009C4000012087675820B1208767582011208AE41
:1009D400AF829000D6EFF07582001208767582001F
:1009E40012087675820C1208767582011208AEAF71
:1009F400829000D7EFF0758200120876758200129B
:100A0400087675824C1208767582011208AEAF82A0
:100A14009000D8EFF022D2B1C295C29743932043FD
:100A2400938090000A12009D439702C2B190000A7D
:100A340012009DD2B190000A12009DC2B190000A2A
:100A440012009DD2B190000A12009DC2B190000A1A
:100A540012009DD2B190001E12009DC2B1900028D8
:100A640012009DD2B190001E12009DC2B1900014DC
:100A740012009DD2B190000A12009DC2B190000AEA
:100A840012009DD2B190001412009DC2B190000AD0
:100A940012009DD2B190001412009DC2B190000AC0
:100AA40012009D75825A1208767582A51208767511
:100AB400820312087690000A02009D900042E0FF33
:100AC4007E00C3EE9F501D74032E2440F582E4344F
:100AD40000F583E0F582C007C006120876D006D080
:100AE400070E80DE22900042E0FF900043E0FE7D8E
:100AF400008F037C001BBBFF011C8D017A00C3E93E
:100B04009BEA64808CF063F08095F0502DED24D640
:100B1400FBE43400FC758200C007C006C005C004B5
:100B2400C0031208AEAA82D003D004D005D006D0E8
:100B3400078B828C83EAF00D80B7EF1424D6FDE492
:100B44003400FF8E82C007C0051208AEAE82D00505
:100B5400D0078D828F83EEF022900042E06004D2B1
:100B6400958002C295900043E06004D2978002C24F
:100B740097900044E06003D2B122C2B122AF9374D3
:100B8400DF5FF593D295AF93747F5FF593D297AF00
:100B94009774FD5FF597D2B122900042E0FF900078
:100BA40043E0FE7D008F037C001BBBFF011C8D0115
:100BB4007A00C3E99BEA64808CF063F08095F0507E
:100BC4005F74042D2440F582E43400F583E0F5825B
:100BD400C007C006C005120876D005D006D007C2EB
:100BE400957C00C3EC9E5019900001C007C006C05C
:100BF40005C0041200C2D004D005D006D0070C8072
:100C0400E2900001C007C006C0051200C2D297904E
:100C140000011200C2D005D006D007C2970D80850E
:100C240074042D2440F582E43400F583E0F582C099
:100C340006120876D006C2957F00C3EF9E5011902D
:100C44000001C007C0061200C2D006D0070F80EA18
:100C5400D2959000011200C2D2979000011200C2F6
:100C6400C2972222AF8275FC00EF24F65003020CD7
:100C7400C4EF240A83F582EF240E83F583E473C45E
:100C8400979CA1A6ABB0B5BABF0C0C0C0C0C0C0C09
:100C94000C0C0C75FB06802B75FB0C802675FB1861
:100CA400802175FB30801C75FB60801775FBC0804C
:100CB4001275FBFE800D75FBFE800875FBFE80033C
:100CC40075FBFE75FA60228582F930FBFD85F98299
:010CD40022FD
:10005F00751900751A00751B00751C00751D00754C
:02006F001E0071
:100CD50085822985832A85F02B8528188529158500
:100CE5002A16852B17E52824BF40317B00C3EB95D9
:100CF500285024EB2400F9E43400FAEB2529F8E424
:100D0500352AFCAF2B88828C838FF012184BF8891B
:100D1500828A83F00B80D68528DD802C7F00EF2426
:100D250000FDE43400FEEF2529FAE4352AFBAC2B5F
:100D35008A828B838CF012184BFA8D828E83F00F8A
:100D4500BF400040D975DD40751D0075DC0022856A
:100D5500822985832A85F02B852818852915852ADA
:100D650016852B17E52824BF40317B00C3EB95285A
:100D75005024EB2400F9E43400FAEB2529F8E43596
:100D85002AFCAF2B88828C838FF012184BF889824E
:100D95008A83F00B80D68528DD802C7F00EF240028
:100DA500FDE43400FEEF2529FAE4352AFBAC2B8A55
:100DB500828B838CF012184BFA8D828E83F00FBFD5
:100DC500400040D975DD40751D0175DC40228582E6
:100DD5001585831685F01785281875DC022285820E
:100DE5001585831685F01785281875DC822275DD33
:100DF5000075DC03222275E22143D1012210DA02BB
:100E050080012230D81A75E30075DD4075DC02C219
:100E1500D9C2D875EC0075ED00751B00751C002254
:100E250030D94C75DC0AE5D9540F6002802774303F
:100E350055D9FFBF2005120F938032743055D9FF65
:100E4500BF3005120E758025E5D954306002801D2E
:100E5500120EC88018740F55D9FFBF011074305594
:100E6500D9FFBF200512148F800312148EC2D92218
:100E75001208707F00EF246CFDE43401FEEF2400BE
:100E8500F582E43400F583E0FC8D828E83F00FBF9C
:100E9500080040E1900000E05460C4035407FF607F
:100EA5000ABF01028008BF020B800602103602103D
:100EB5008A0210A675284090004075F000120DD3E7
:100EC500020DF37401B51E028003020F7BE51824A1
:100ED500BF40437F00C3EF95185022EF2515FCE472
:100EE5003516FDAE17EF2400F582E43400F583E0F6
:100EF500FB8C828D838EF01218130F80D8E5196054
:100F0500061200FD751900751E027528009000D6A1
:100F150075F000020D547F00EF2515FCE43516FD34
:100F2500AE17EF2400F582E43400F583E0FB8C82F4
:100F35008D838EF01218130FBF400040DBE5DC30C7
:100F4500E71A74402515FDE43516FEAF17E518249C
:100F5500C0F5288D828E838FF0020DD37440251540
:100F6500FDE43516FEAF17E51824C0F5288D828EF1
:100F7500838FF0020DE37402B51E12751E007528ED
:100F85004090004075F000120DD3020873227401E1
:100F9500B51E028003021014E51824BF40397518E8
:100FA50000751E0275280090004075F000120DE3D3
:100FB500E51D60117528008515828516838517F056
:100FC500120CD5800F752800851582851683851727
:100FD500F0120D54020873E51D601A74402515FDC5
:100FE500E43516FEAF17E51824C0F5288D828E83EB
:100FF5008FF0020CD574402515FDE43516FEAF17AC
:10100500E51824C0F5288D828E838FF0020D547467
:1010150002B51E1CE51B6006851BE3751B00751ECE
:101025000075284090004075F000120DD30208733A
:101035002290016DE0FF24F3500122EF240A83F58D
:1010450082EF241183F583E473686B896E8971746B
:10105500777A7D80838610101010101010101010F4
:101065001010100210A702111B0211600211A50237
:1010750011BB02142902143C021452021468021412
:101085007D12148D2290016DE0FFBF0102800EBF1D
:1010950009028006BF0A090214900214960214D5AB
:1010A500222290016CE0FF53071FBF0002800ABF98
:1010B5000102801EBF024D80329000D6E4F0900000
:1010C500D7F07528029000D675F000120D54751EE4
:1010D50001229000D6E4F09000D7F0752802900028
:1010E500D675F000120D54751E01229000D6E4F05D
:1010F5009000D7F07528029000D675F000120D54B7
:10110500751E012275284090004075F000120DD320
:10111500751E00020DF390016CE0FF53071FBF0021
:10112500028005BF022280107528009000D675F058
:1011350000120D54751E02227528009000D675F018
:1011450000120D54751E022275284090004075F05E
:1011550000120DD3120DF3751E0022900000E0FF62
:1011650053071FBF00028005BF02228010752800AB
:101175009000D675F000120D54751E0222752800D8
:101185009000D675F000120D54751E022275284088
:1011950090004075F000120DD3120DF3751E00225C
:1011A50090016EE0F51B7528009000D675F00012D1
:1011B5000D54751E0222900173E0FF7E00900172AE
:1011C500E07C002EFEEC3FFF90016FE0FDBD0102CB
:1011D5008014BD02028056BD0303021279BD2203AD
:1011E5000213C7021416C3EE9412EF940040047E56
:1011F500127F007C007D00C3EC9EED9F5021EC2406
:10120500D6FAED3400FBEC246BF582ED3418F5834A
:10121500E493F98A828B83F00CBC00DB0D80D875D2
:101225001E018E289000D675F000020D54C3EE9471
:1012350022EF940040047E227F007C007D00C3ECF9
:101245009EED9F5021EC24D6FAED3400FBEC24B042
:10125500F582ED3418F583E493F98A828B83F00CDB
:10126500BC00DB0D80D8751E018E289000D675F068
:1012750000020D5490016EE0FD24FC50030213B4EE
:10128500ED2D2D90128C730212980212DF02132697
:1012950002136DC3EE9404EF940040047E047F00B6
:1012A5007C007D00C3EC9EED9F5021EC24D6FAED29
:1012B5003400FBEC24D2F582ED3418F583E493F980
:1012C5008A828B83F00CBC00DB0D80D8751E018EE5
:1012D500289000D675F000020D54C3EE9418EF94D3
:1012E5000040047E187F007C007D00C3EC9EED9FCE
:1012F5005021EC24D6FAED3400FBEC24D6F582ED32
:101305003418F583E493F98A828B83F00CBC00DBF7
:101315000D80D8751E018E289000D675F000020D3F
:1013250054C3EE940EEF940040047E0E7F007C00C3
:101335007D00C3EC9EED9F5021EC24D6FAED3400E0
:10134500FBEC24EEF582ED3418F583E493F98A82FB
:101355008B83F00CBC00DB0D80D8751E018E2890A8
:1013650000D675F000020D54C3EE941AEF940040B8
:10137500047E1A7F007C007D00C3EC9EED9F50210A
:10138500EC24D6FAED3400FBEC24FCF582ED3418A0
:10139500F583E493F98A828B83F00CBC00DB0D8026
:1013A500D8751E018E289000D675F000020D547573
:1013B500284090004075F000120DD3120DF3751EF4
:1013C500002290016EE0FD600122C3EE9433EF949C
:1013D5000040047E337F007C007D00C3EC9EED9FC2
:1013E5005021EC24D6FAED3400FBEC247DF582ED9A
:1013F5003418F583E493F98A828B83F00CBC00DB07
:101405000D80D8751E018E289000D675F000020D4E
:101415005475284090004075F000120DD3120DF35D
:10142500751E002275284090004075F000120DD3FE
:10143500120DF3751E00229000D6E51CF0752801EB
:101445009000D675F000120D54751E012290016EA4
:10145500E0F51C7528009000D675F000120D547546
:101465001E02229000D6E4F07528019000D675F092
:1014750000120D54751E01227528009000D675F0D6
:1014850000120D54751E0222222222751E00020D25
:10149500F390016EE0FFBF0102800ABF02028005E2
:1014A500BF042C8015751901751E01900172E0F5B8
:1014B5002890004075F000020DE3751901751E01B5
:1014C500900172E0F52890004075F000020DE322CE
:0F14D500751E01851A289000D675F000020D547F
:10186B001201000200000040EB03B4C801000102AA
:10187B0003010600FF0901A101150026FF007508F1
:10188B00850195070900B20201850295870900B20F
:10189B0002018503957F0900B202018504953F097A
:1018AB0000B20201C009022200010100C03209048A
:1018BB000000010300000009210101000122330097
:1018CB00070581030800010403090418037A006863
:1018DB00006900660065006E00670073006F0066AC
:1018EB000074000E035500530042004800490044A9
:1018FB00001A03430048003500350078002D0031F5
:10190B0000380031003200330031006D63755072C6
:10191B006F672076312E302062313831323331000F
:1014E400AE82AF83758220C007C006120CCBD00633
:1014F400D0078F82C007C006120CCBD006D0078E4F
:1015040082120CCB758200020CCBAE82AF83758243
:1015140020C007C006120CCBD006D0078F82C007AC
:10152400C006120CCBD006D0078E82120CCB75826B
:1015340000020CCBAE82AF83758228C007C00612AE
:101544000CCBD006D0078F82C007C006120CCBD0BC
:1015540006D0078E82120CCB758200020CCBAE82B1
:10156400AF837582A0C007C006120CCBD006D0078B
:101574008F82C007C006120CCBD006D0078E821211
:101584000CCB758200020CCBAE82AF8374FFB52105
:101594000122758240C007C006120CCBD006D007CA
:1015A4008F058D82C007C006C005120CCBD005D0B4
:1015B40006D0078E82C006C005120CCBD005D0061B
:1015C400852182C006C005120CCBD005D0067F0051
:1015D400758220C007C006C005120CCBD0058D82D1
:1015E400C005120CCBD005D0068E82C006C00512F1
:1015F4000CCB758200120CCBAC82D005D006D00780
:10160400ECB52101220FBF320040C522AE82AF8368
:101614007582C0C007C006120CCBD006D0078F82DB
:10162400C007C006120CCBD006D0078E82120CCB9A
:10163400852282120CCB90000A020078AD82AE8320
:10164400AFF07C007B00C3EB9528501FEB2DF8E432
:101654003EF98F02888289838AF012184BF8B8FF0A
:101664000280038C82220B8B0480DB7582FF22AE06
:1016740082AF837D008D037C00C3EB9526EC952718
:101684005076ED30E026758248C007C006C00512CA
:101694000CCB758200120CCBD005EDC313F582C0C0
:1016A40005120CCBD005D006D0078024758240C02B
:1016B40007C006C005120CCB758200120CCBD005F6
:1016C400EDC313F582C005120CCBD005D006D007AC
:1016D400ED2523FAE43524FBAC258A828B838CF038
:1016E40012184BF582C007C006C005120CCBD005FA
:1016F400D006D0070D02167975824CC007C00612B9
:101704000CCBD006D007EFC313F582C007C0061276
:101714000CCBD006D0078E04EFC313CC13CC8C8231
:10172400C007C006120CCB758200120CCBD006D0B9
:10173400078526288523828524838525F0C007C054
:1017440006121640AD82D006D007BDFF030217E390
:1017540074015DFC7B00900001C007C006C005C099
:1017640004C003120078D003D004D005D006D007FB
:10177400EC60328D017A00E92EF9EA3F8982C313C5
:10178400C58213C582F583C007C006C005C004C066
:1017940003121538AA82D003D004D005D006D0078E
:1017A400BAFF4280308D017A00E92EF9EA3F89823E
:1017B400C313C58213C582F583C007C006C005C024
:1017C40004C00312150EAA82D003D004D005D0069B
:1017D400D007BAFF100BBB0A00500302175A22901D
:1017E400000A020078227A10E4FBFCE58225E0F589
:1017F40082E58333F583EB33FBEC33FCEB9528F57F
:0F180400F0EC95294006FCABF0438201DADD22BF
:06003500E478FFF6D8FD9F
:100013007900E94400601B7A0090192B787475A06D
:1000230001E493F2A308B8000205A0D9F4DAF2754B
:02003300A0FF2C
:1018130020F71130F6138883A88220F509F6A883F0
:101823007583002280FEF280F5F022E5828528F0A0
:10183300A4C582C0F08529F0A4D0F025F0C5838526
:0818430028F0A42583F583229F
:10003B007800E84400600A790075A000E4F309D861
:10004B00FC7874E84401600C7902900000E4F0A3A2
:04005B00D8FCD9FAFA
:0D00060075812B121867E58260030200036C
:10184B0020F71430F6148883A88220F507E6A883C6
:10185B0075830022E280F7E49322E0227582002256
:00000001FF
