:03000000020006F5
:03005F0002000399
:0300030002006296
:1000620075A15575A1AA75B98675A100AF9274DF05
:100072005FF592439320AF9D74FD5FF59D759E01E0
:08008200759C99439D0480FE6A
:06003500E478FFF6D8FD9F
:100013007900E94400601B7A0090008E780075A097
:1000230000E493F2A308B8000205A0D9F4DAF2754C
:02003300A0FF2C
:10003B007800E84400600A790075A000E4F309D861
:10004B00FC7800E84400600C7900900000E4F0A319
:04005B00D8FCD9FAFA
:0D00060075810712008AE582600302000385
:04008A007582002259
:00000001FF
