:03000000020006F5
:03005F0002000399
:030003000200896F
:200062007CA07D867E017F00EC24FFF8ED34FFF9EE34FFFAEF34FFFB880489058A068B07CD
:20008200E8494A4B70E22275A15575A1AA75B98675A100AF9674FE5FF59643970143B001BF
:0F00A200120062AFB074FE5FF5B012006280EE24
:06003500E478FFF6D8FD9F
:200013007900E94400601B7A009000B5780075A000E493F2A308B8000205A0D9F4DAF275DF
:02003300A0FF2C
:20003B007800E84400600A790075A000E4F309D8FC7800E84400600C7900900000E4F0A3C5
:04005B00D8FCD9FAFA
:0D0006007581071200B1E58260030200035E
:0400B1007582002232
:00000001FF
