:0400000002001132B7
:03000B0002007080
:06006A0075080002000E03
:03000E000200C22B
:20007000C0E0758CF8758A30E50860087508005390DF8006750801439020D0E0327589013C
:20009000D2A9D2AF758CF8758A30D28C22AE82AF838E048F051EBEFF011FEC4D6013758C7C
:2000B000F8758A30C28DD28C308DFDC28CC28D80E02275A15575A1AA75B98675A1005392A9
:0F00D000204393205396FE43970112008D80FE2C
:06004000E478FFF6D8FD94
:20001E007900E94400601B7A009000E3780075A000E493F2A308B8000205A0D9F4DAF275A6
:02003E00A0FF21
:200046007800E84400600A790075A000E4F309D8FC7800E84400600C7900900000E4F0A3BA
:04006600D8FCD9FAEF
:0D0011007581081200DFE582600302000E19
:0400DF007582002204
:00000001FF
