:03000000020006F5
:03005F0002000399
:0300030002008B6D
:2000620075890122AE82AF838E048F051EBEFF011FEC4D6013758CF8758A30C28DD28C3029
:200082008DFDC28CC28D80E02275A15575A1AA75B98675A100539220439320AF9674FE5FAF
:2000A200F59643970112006243B001439020900064120066AFB074FE5FF5B0AF9074DF5F4B
:0A00C200F59090006412006680DEE5
:06003500E478FFF6D8FD9F
:200013007900E94400601B7A009000D0780075A000E493F2A308B8000205A0D9F4DAF275C4
:02003300A0FF2C
:20003B007800E84400600A790075A000E4F309D8FC7800E84400600C7900900000E4F0A3C5
:04005B00D8FCD9FAFA
:0D0006007581071200CCE582600302000343
:0400CC007582002217
:00000001FF
